:020000040800F2
:1000000000500020A11E00089D1C0008A31C000831
:10001000A91C0008AF1C0008B51C00080000000067
:10002000000000000000000000000000BB1C0008F1
:10003000C71C000800000000D31C0008DF1C0008DB
:10004000E91E0008E91E0008E91E0008E91E000874
:10005000E91E0008E91E0008E91E0008E91E000864
:10006000E91E0008E91E0008E91E0008E91E000854
:10007000E91E0008E91E0008E91E0008E91E000844
:10008000E91E0008E91E0008E91E0008E91E000834
:10009000E91E0008E91E0008E91E0008E91E000824
:1000A000E91E0008ED1C0008E91E0008E91E000812
:1000B000E91E0008E91E0008E91E0008E91E000804
:1000C000E91E0008E91E0008E91E0008E91E0008F4
:1000D000E91E0008011D0008E91E0008E91E0008CD
:1000E000E91E0008E91E0008E91E000800000000E3
:1000F0000000000000000000000000000000000000
:0C01000000000000000000005FF808F1A3
:1001100010B5054C237833B9044B13B10448AFF341
:1001200000800123237010BDD801002000000000D2
:10013000AC97000808B5034B1BB103490348AFF364
:10014000008008BD00000000DC010020AC97000822
:10015000034613F8012B002AFBD1181A0138704707
:1001600081F0004102E000BF83F0004330B54FEA68
:1001700041044FEA430594EA050F08BF90EA020FD5
:100180001FBF54EA000C55EA020C7FEA645C7FEA68
:10019000655C00F0E2804FEA5454D4EB5555B8BF8B
:1001A0006D420CDD2C4480EA020281EA030382EAFC
:1001B000000083EA010180EA020281EA0303362D8E
:1001C00088BF30BD11F0004F4FEA01314FF4801C61
:1001D0004CEA113102D0404261EB410113F0004F73
:1001E0004FEA03334CEA133302D0524263EB43032A
:1001F00094EA050F00F0A780A4F10104D5F1200EC8
:100200000DDB02FA0EFC22FA05F2801841F1000122
:1002100003FA0EF2801843FA05F359410EE0A5F1F6
:1002200020050EF1200E012A03FA0EFC28BF4CF027
:10023000020C43FA05F3C01851EBE37101F00045DD
:1002400007D54FF0000EDCF1000C7EEB00006EEBEA
:100250000101B1F5801F1BD3B1F5001F0CD3490874
:100260005FEA30004FEA3C0C04F101044FEA4452CB
:1002700012F5800F80F09A80BCF1004F08BF5FEA52
:10028000500C50F1000041EB045141EA050130BD32
:100290005FEA4C0C404141EB0101013C28BFB1F544
:1002A000801FE9D291F0000F04BF01460020B1FA8F
:1002B00081F308BF2033A3F10B03B3F120020CDA62
:1002C0000C3208DD02F1140CC2F10C0201FA0CF040
:1002D00021FA02F10CE002F11402D8BFC2F1200CA5
:1002E00001FA02F120FA0CFCDCBF41EA0C0190405B
:1002F000E41AA2BF01EB0451294330BD6FEA0404A4
:100300001F3C1CDA0C340EDC04F11404C4F120028E
:1003100020FA04F001FA02F340EA030021FA04F3A0
:1003200045EA030130BDC4F10C04C4F1200220FAF7
:1003300002F001FA04F340EA0300294630BD21FA35
:1003400004F0294630BD94F0000F83F4801306BFFB
:1003500081F480110134013D4EE77FEA645C18BFEF
:100360007FEA655C29D094EA050F08BF90EA020F86
:1003700005D054EA000C04BF1946104630BD91EA7E
:10038000030F1EBF0021002030BD5FEA545C05D181
:100390004000494128BF41F0004130BD14F58004C0
:1003A0003CBF01F5801130BD01F0004545F0FE4134
:1003B00041F470014FF0000030BD7FEA645C1ABF69
:1003C000194610467FEA655C1CBF0B46024650EAA0
:1003D000013406BF52EA033591EA030F41F40021CC
:1003E00030BD00BF90F0000F04BF0021704730B552
:1003F0004FF4806404F132044FF000054FF0000127
:1004000050E700BF90F0000F04BF0021704730B5E7
:100410004FF4806404F1320410F0004548BF4042BC
:100420004FF000013EE700BF42004FEAE2014FEA11
:1004300031014FEA02701FBF12F07F4393F07F4FEC
:1004400081F06051704732F07F4208BF704793F0EF
:100450007F4F04BF41F40021704730B54FF4607402
:1004600001F0004521F000411CE700BF50EA010205
:1004700008BF704730B54FF000050AE050EA0102AE
:1004800008BF704730B511F0004502D5404261EB1E
:1004900041014FF4806404F132045FEA915C3FF45F
:1004A000D8AE4FF003025FEADC0C18BF03325FEAFC
:1004B000DC0C18BF033202EBDC02C2F1200300FAAD
:1004C00003FC20FA02F001FA03FE40EA0E0021FAD2
:1004D00002F11444BDE600BF70B54FF0FF0C4CF4C0
:1004E000E06C1CEA11541DBF1CEA135594EA0C0F72
:1004F00095EA0C0F00F0DEF82C4481EA030621EAAD
:100500004C5123EA4C5350EA013518BF52EA0335E7
:1005100041F4801143F4801338D0A0FB02CE4FF099
:100520000005E1FB02E506F00042E0FB03E54FF0C9
:100530000006E1FB03569CF0000F18BF4EF0010EC1
:10054000A4F1FF04B6F5007F64F5407404D25FEABD
:100550004E0E6D4146EB060642EAC62141EA555170
:100560004FEAC52040EA5E504FEACE2EB4F1FD0CB2
:1005700088BFBCF5E06F1ED8BEF1004F08BF5FEA30
:10058000500E50F1000041EB045170BD06F00046E2
:1005900046EA010140EA020081EA0301B4EB5C048F
:1005A000C2BFD4EB0C0541EA045170BD41F4801187
:1005B0004FF0000E013C00F3AB8014F1360FDEBFAC
:1005C000002001F0004170BDC4F10004203C35DA88
:1005D0000C341BDC04F11404C4F1200500FA05F30B
:1005E00020FA04F001FA05F240EA020001F00042AC
:1005F00021F0004110EBD37021FA04F642EB060122
:100600005EEA430E08BF20EAD37070BDC4F10C044B
:10061000C4F1200500FA04F320FA05F001FA04F20F
:1006200040EA020001F0004110EBD37041F10001FB
:100630005EEA430E08BF20EAD37070BDC4F1200506
:1006400000FA05F24EEA020E20FA04F301FA05F26E
:1006500043EA020321FA04F001F0004121FA04F216
:1006600020EA020000EBD3705EEA430E08BF20EAE6
:10067000D37070BD94F0000F0FD101F00046400020
:1006800041EB010111F4801F08BF013CF7D041EAA2
:10069000060195F0000F18BF704703F000465200A6
:1006A00043EB030313F4801F08BF013DF7D043EA77
:1006B0000603704794EA0C0F0CEA135518BF95EA2D
:1006C0000C0F0CD050EA410618BF52EA4306D1D1B4
:1006D00081EA030101F000414FF0000070BD50EAD3
:1006E000410606BF1046194652EA430619D094EA5D
:1006F0000C0F02D150EA013613D195EA0C0F05D147
:1007000052EA03361CBF104619460AD181EA03019A
:1007100001F0004141F0FE4141F470014FF0000052
:1007200070BD41F0FE4141F4780170BD70B54FF0ED
:10073000FF0C4CF4E06C1CEA11541DBF1CEA13556D
:1007400094EA0C0F95EA0C0F00F0A7F8A4EB05044F
:1007500081EA030E52EA03354FEA013100F0888046
:100760004FEA03334FF0805545EA131343EA12630F
:100770004FEA022245EA111545EA10654FEA0026C4
:100780000EF000419D4208BF964244F1FD0404F57D
:10079000407402D25B084FEA3202B61A65EB0305D9
:1007A0005B084FEA32024FF480104FF4002CB6EB96
:1007B000020E75EB030E22BFB61A754640EA0C0016
:1007C0005B084FEA3202B6EB020E75EB030E22BF56
:1007D000B61A754640EA5C005B084FEA3202B6EB97
:1007E000020E75EB030E22BFB61A754640EA9C0056
:1007F0005B084FEA3202B6EB020E75EB030E22BF26
:10080000B61A754640EADC0055EA060E18D04FEAE3
:10081000051545EA16754FEA06164FEAC30343EA83
:1008200052734FEAC2025FEA1C1CC0D111F4801F50
:100830000BD141EA00014FF000004FF0004CB6E749
:1008400011F4801F04BF01430020B4F1FD0C88BFE8
:10085000BCF5E06F3FF6AFAEB5EB030C04BFB6EBF3
:10086000020C5FEA500C50F1000041EB045170BDE6
:100870000EF0004E4EEA113114EB5C04C2BFD4EB13
:100880000C0541EA045170BD41F480114FF0000E97
:10089000013C90E645EA060E8DE60CEA135594EA13
:1008A0000C0F08BF95EA0C0F3FF43BAF94EA0C0F16
:1008B0000AD150EA01347FF434AF95EA0C0F7FF48B
:1008C00025AF104619462CE795EA0C0F06D152EADF
:1008D00003353FF4FDAE1046194622E750EA4106C3
:1008E00018BF52EA43067FF4C5AE50EA41047FF4D4
:1008F0000DAF52EA43057FF4EBAE12E74FF0FF3C39
:1009000006E000BF4FF0010C02E000BF4FF0010C09
:100910004DF804CD4FEA410C7FEA6C5C4FEA430C82
:1009200018BF7FEA6C5C1BD001B050EA410C0CBFD1
:1009300052EA430C91EA030F02BF90EA020F002033
:10094000704710F1000F91EA030F58BF994208BF9A
:1009500090422CBFD8176FEAE37040F00100704757
:100960004FEA410C7FEA6C5C02D150EA013C07D1AE
:100970004FEA430C7FEA6C5CD6D152EA033CD3D0F9
:100980005DF8040B704700BF8446104662468C46F3
:100990001946634600E000BF01B5FFF7B7FF002826
:1009A00048BF10F1000F01BD4DF808EDFFF7F4FF4F
:1009B0000CBF012000205DF808FB00BF4DF808EDDA
:1009C000FFF7EAFF34BF012000205DF808FB00BFFD
:1009D0004DF808EDFFF7E0FF94BF012000205DF81F
:1009E00008FB00BF4DF808EDFFF7CEFF94BF0120D4
:1009F00000205DF808FB00BF4DF808EDFFF7C4FFCD
:100A000034BF012000205DF808FB00BF4FEA410C15
:100A10007FEA6C5C02D150EA013C0AD14FEA430CF8
:100A20007FEA6C5C02D152EA033C02D14FF0000035
:100A300070474FF0010070474FEA410212F5001273
:100A400015D211D56FF47873B3EB625212D94FEA15
:100A5000C12343F0004343EA505311F0004F23FAFF
:100A600002F018BF404270474FF00000704750EA54
:100A7000013005D111F0004008BF6FF00040704711
:100A80004FF00000704700BF4A0011D212F500126B
:100A900011D20DD56FF47873B3EB62520ED44FEAD6
:100AA000C12343F0004343EA505323FA02F0704756
:100AB0004FF00000704750EA013002D14FF0FF3094
:100AC00070474FF0000070474FEA4102B2F1E04337
:100AD00024BFB3F5001CDCF1FE5C0DD901F0004C25
:100AE0004FEAC0024CEA5070B2F1004F40EB830075
:100AF00008BF20F00100704711F0804F21D113F1A1
:100B00003872BCBF01F00040704741F480114FEAD9
:100B10005252C2F11802C2F1200C10FA0CF320FA62
:100B200002F018BF40F001004FEAC1234FEAD3237F
:100B300003FA0CFC40EA0C0023FA02F34FEA4303E9
:100B4000CCE77FEA625307D150EA01331EBF4FF072
:100B5000FE4040F44000704701F0004040F0FE408D
:100B600040F40000704700BF80F0004002E000BF8A
:100B700081F0004142001FBF5FEA410392EA030F88
:100B80007FEA226C7FEA236C6AD04FEA1262D2EBD2
:100B90001363C1BFD218414048404140B8BF5B42D7
:100BA000192B88BF704710F0004F40F4000020F070
:100BB0007F4018BF404211F0004F41F4000121F086
:100BC0007F4118BF494292EA030F3FD0A2F10102D0
:100BD00041FA03FC10EB0C00C3F1200301FA03F10E
:100BE00000F0004302D5494260EB4000B0F5000F31
:100BF00013D3B0F1807F06D340084FEA310102F1F0
:100C00000102FE2A51D2B1F1004F40EBC25008BFA1
:100C100020F0010040EA03007047490040EB00006B
:100C2000013A28BFB0F5000FEDD2B0FA80FCACF16C
:100C3000080CB2EB0C0200FA0CF0AABF00EBC25099
:100C400052421843BCBFD0401843704792F0000F87
:100C500081F4000106BF80F400000132013BB5E7DA
:100C60004FEA41037FEA226C18BF7FEA236C21D050
:100C700092EA030F04D092F0000F08BF08467047B5
:100C800090EA010F1CBF0020704712F07F4F04D183
:100C9000400028BF40F00040704712F100723CBF96
:100CA00000F50000704700F0004343F0FE4040F4C0
:100CB000000070477FEA226216BF08467FEA23637E
:100CC0000146420206BF5FEA412390EA010F40F469
:100CD000800070474FF0000304E000BF10F00043B5
:100CE00048BF40425FEA000C08BF704743F096439C
:100CF00001464FF000001CE050EA010208BF7047B7
:100D00004FF000030AE000BF50EA010208BF70473D
:100D100011F0004302D5404261EB41015FEA010C52
:100D200002BF84460146002043F0B64308BFA3F14A
:100D30008053A3F50003BCFA8CF2083AA3EBC2532C
:100D400010DB01FA02FC634400FA02FCC2F120024B
:100D5000BCF1004F20FA02F243EB020008BF20F082
:100D60000100704702F1200201FA02FCC2F12002E8
:100D700050EA4C0021FA02F243EB020008BF20EADD
:100D8000DC7070474FF0FF0C1CEAD0521EBF1CEA0B
:100D9000D15392EA0C0F93EA0C0F6FD01A4480EAF9
:100DA000010C400218BF5FEA41211ED04FF00063E2
:100DB00043EA501043EA5111A0FB01310CF000400E
:100DC000B1F5000F3EBF490041EAD3715B0040EA34
:100DD000010062F17F02FD2A1DD8B3F1004F40EB04
:100DE000C25008BF20F00100704790F0000F0CF0D7
:100DF000004C08BF49024CEA502040EA51207F3A9B
:100E0000C2BFD2F1FF0340EAC250704740F4000075
:100E10004FF00003013A5DDC12F1190FDCBF00F066
:100E200000407047C2F10002410021FA02F1C2F114
:100E3000200200FA02FC5FEA310040F1000053EAB0
:100E40004C0308BF20EADC70704792F0000F00F0FE
:100E5000004C02BF400010F4000F013AF9D040EA04
:100E60000C0093F0000F01F0004C02BF490011F498
:100E7000000F013BF9D041EA0C018FE70CEAD15396
:100E800092EA0C0F18BF93EA0C0F0AD030F0004C16
:100E900018BF31F0004CD8D180EA010000F00040CA
:100EA000704790F0000F17BF90F0004F084691F088
:100EB000000F91F0004F14D092EA0C0F01D14202C2
:100EC0000FD193EA0C0F03D14B0218BF084608D18B
:100ED00080EA010000F0004040F0FE4040F40000D5
:100EE000704740F0FE4040F4400070474FF0FF0C68
:100EF0001CEAD0521EBF1CEAD15392EA0C0F93EAAF
:100F00000C0F69D0A2EB030280EA010C49024FEA00
:100F1000402037D04FF0805343EA111143EA1013B9
:100F20000CF000408B4238BF5B0042F17D024FF471
:100F3000000C8B4224BF5B1A40EA0C00B3EB510F4C
:100F400024BFA3EB510340EA5C00B3EB910F24BF35
:100F5000A3EB910340EA9C00B3EBD10F24BFA3EBBA
:100F6000D10340EADC001B0118BF5FEA1C1CE0D182
:100F7000FD2A3FF650AF8B4240EBC25008BF20F035
:100F8000010070470CF0004C4CEA50207F32C2BF89
:100F9000D2F1FF0340EAC250704740F400004FF026
:100FA0000003013A37E792F0000F00F0004C02BF57
:100FB000400010F4000F013AF9D040EA0C0093F021
:100FC000000F01F0004C02BF490011F4000F013B7B
:100FD000F9D041EA0C0195E70CEAD15392EA0C0FE3
:100FE00008D142027FF47DAF93EA0C0F7FF470AF1B
:100FF000084676E793EA0C0F04D14B023FF44CAF5E
:1010000008466EE730F0004C18BF31F0004CCAD1F2
:1010100030F000427FF45CAF31F000437FF43CAF2E
:101020005FE700BF4FF0FF3C06E000BF4FF0010C50
:1010300002E000BF4FF0010C4DF804CD4FEA400232
:101040004FEA41037FEA226C18BF7FEA236C11D07C
:1010500001B052EA530C18BF90EA010F58BFB2EB2F
:10106000030088BFC81738BF6FEAE17018BF40F0AF
:10107000010070477FEA226C02D15FEA402C05D163
:101080007FEA236CE4D15FEA412CE1D05DF8040BE8
:10109000704700BF844608466146FFE70FB5FFF77B
:1010A000C9FF002848BF10F1000F0FBD4DF808ED33
:1010B000FFF7F4FF0CBF012000205DF808FB00BF24
:1010C0004DF808EDFFF7EAFF34BF012000205DF87E
:1010D00008FB00BF4DF808EDFFF7E0FF94BF0120CB
:1010E00000205DF808FB00BF4DF808EDFFF7D2FFC8
:1010F00094BF012000205DF808FB00BF4DF808ED0B
:10110000FFF7C8FF34BF012000205DF808FB00BFD7
:1011100038B505460C460022002328462146FFF735
:101120004DFC28B928462146BDE8384000F00AB8F1
:10113000284604F1004100F005F8404261EB41010E
:1011400038BD00BFD0B500220B4B06460F46FFF757
:10115000C3F9FFF799FC0446FFF744F90022074B57
:10116000FFF7BAF902460B4630463946FEF7FCFF58
:10117000FFF78AFC2146D0BD0000F03D0000F041A1
:1011800080B582B000AF78607B681B68384A9342B4
:1011900064D1384B1B685B6A1846FFF79BFD03461A
:1011A000354A1360344B1B68344A1268114618469E
:1011B000FFF7DEFC03461A46314B1A60304B1B68C2
:1011C00030491846FFF792FE03462F491846FFF7AD
:1011D000D9FD03461A462D4B1A60294B1B68294935
:1011E0001846FFF783FE03461846FFF71DF91EA3B6
:1011F000D3E90023FFF770F902460B461046194663
:10120000FFF762FC0346224A1360214B1B684FF034
:1012100000011846FFF754FF0346002B06D01C4B75
:101220001B6883F000431A4A136003E0184B1B68E5
:10123000174A1360174B1B68154A12681146184667
:10124000FFF798FC03461A46124B1A600A4B1B68BC
:101250000A4A1360104B4FF07E521A6000BF0837E5
:10126000BD4680BDAFF300801995D4096822CC3FFC
:10127000002C01409002002098030020A0030020D1
:101280009C0300200000A54300007042780300206A
:10129000740300207C0300209403002080B500AF7D
:1012A00001221021094801F0EBF900222021074812
:1012B00001F0E6F900224021044801F0E1F90122A1
:1012C0008021024801F0DCF900BF80BD0008014028
:1012D00080B500AF00221021094801F0D1F90122A8
:1012E0002021074801F0CCF901224021044801F0F7
:1012F000C7F900228021024801F0C2F900BF80BD79
:101300000008014080B500AF00221021094801F01B
:10131000B7F900222021074801F0B2F9012240214B
:10132000044801F0ADF901228021024801F0A8F93A
:1013300000BF80BD0008014080B500AF0122102130
:10134000094801F09DF901222021074801F098F990
:1013500000224021044801F093F900228021024834
:1013600001F08EF900BF80BD0008014080B500AFDC
:1013700000221021094801F083F9002220210748AA
:1013800001F07EF900224021044801F079F90022A1
:101390008021024801F074F900BF80BD00080140BF
:1013A00080B483B000AF78607B681A68084B1B6814
:1013B0009A4207D1074B1B780A2B03D0064B4FF0FC
:1013C0007E521A6000BF0C37BD4680BC704700BF1C
:1013D00020030020000000209003002080B500AF13
:1013E000304B1B684FF07E511846FFF75FFE0346F7
:1013F000002B00D154E02C4B1B78423B112B4AD8D8
:1014000001A252F823F000BF5F14000897140008EF
:101410009714000897140008511400089714000846
:1014200097140008971400089714000897140008F0
:101430006D1400089714000897140008971400080A
:1014400097140008971400087B14000889140008FA
:10145000FFF724FF134B4FF000021A601BE0FFF769
:1014600037FF104B4FF000021A6014E0FFF74AFFFD
:101470000C4B4FF000021A600DE0FFF75DFF094BC7
:101480004FF000021A6006E0FFF770FF054B4FF0C7
:1014900000021A6000BF01220349044802F056FF0F
:1014A00000BF80BD9003002000000020200300202A
:1014B00080B582B002AF00F019FD00F09DF800F099
:1014C0002FFA00F003FA00F007F900F057F900F0E6
:1014D000A9F900F0D3F801223849394802F036FF63
:1014E000384802F0E1F90021374802F0D1FA04212E
:1014F000354802F0CDFA0021344802F0C9FA04213F
:10150000324802F0C5FA4E230093022310223049DC
:10151000304803F053FCFFF761FF2F4B1B684FF07F
:101520007E511846FFF7C2FD0346002B45D000222E
:101530000021284803F010FD2849264803F036FD15
:1015400001220021234803F007FD2549214803F02B
:101550002DFD244B1B681846FEF766FF02460B461E
:10156000CDE900230223204A0821204804F064FC2E
:101570001F4B1B681846FEF757FF02460B46CDE986
:1015800000230223184A08211A4804F055FC0022BF
:101590000521104803F0E0FC14490E4803F006FD55
:1015A000012205210B4803F0D7FC1249094803F03A
:1015B000FDFC094B4FF000021A60ACE70000002070
:1015C000200300204802002090020020D8020020C2
:1015D000F40100206803002094030020C89700084D
:1015E000D09700087C030020D897000888030020CB
:1015F000740300208003002080B590B000AF07F195
:10160000180328220021184604F0ADFC3B1D0022DF
:101610001A605A609A60DA601A610223BB61012382
:10162000BB621023FB6202237B630023BB634FF486
:10163000E013FB6307F11803184601F0D5FC0346DD
:10164000002B01D000F0AAF90F237B600223BB60BE
:101650000023FB604FF480633B6100237B613B1DF3
:101660000121184601F042FF0346002B01D000F093
:1016700095F900BF4037BD4680BD000080B500AF82
:10168000124B134A1A60114B124A5A600F4B002238
:101690009A600E4B0022DA600C4B4FF480421A61C4
:1016A0000A4B00225A61094B00229A61074B002223
:1016B000DA61064B00221A62044800F0F9FF034683
:1016C000002B01D000F06AF900BF80BDF4010020BA
:1016D00000540040A086010080B586B000AF07F13D
:1016E000080300221A605A609A60DA603B460022C2
:1016F0001A605A601F4B204A1A601E4B40F60F6258
:101700005A601C4B00229A601A4B42F20F72DA6048
:10171000184B00221A61174B00225A61154B002208
:101720009A61144802F070F80346002B01D000F0D3
:1017300035F94FF48053BB6007F1080319460D4893
:1017400002F03CFB0346002B01D000F027F90023F8
:101750003B6000237B603B461946064802F036FD9D
:101760000346002B01D000F019F900BF1837BD4621
:1017700080BD00BF48020020002C014080B58CB025
:1017800000AF07F10C0324220021184604F0EBFB04
:101790003B1D00221A605A60204B214A1A601F4BE1
:1017A00004225A601D4B00229A601C4B4FF6FF72B8
:1017B000DA601A4B00221A61184B00229A61032347
:1017C000FB6000233B6101237B610023BB6100239D
:1017D000FB6100233B6201237B620023BB62002389
:1017E000FB6207F10C0319460C4802F0AFF8034600
:1017F000002B01D000F0D2F800237B600023BB60F7
:101800003B1D1946054802F0E1FC0346002B01D0C0
:1018100000F0C4F800BF3037BD4680BD9002002004
:101820000004004080B58CB000AF07F10C03242207
:101830000021184604F097FB3B1D00221A605A60F5
:10184000204B214A1A601F4B04225A601D4B002274
:101850009A601C4B4FF6FF72DA601A4B00221A6135
:10186000184B00229A610323FB6000233B61012394
:101870007B610023BB610023FB6100233B620123EA
:101880007B620023BB620023FB6207F10C03194655
:101890000C4802F05BF80346002B01D000F07EF804
:1018A00000237B600023BB603B1D1946054802F006
:1018B0008DFC0346002B01D000F070F800BF3037DC
:1018C000BD4680BDD80200200008004080B500AFB2
:1018D000114B124A1A60104B4FF416525A600E4BBD
:1018E00000229A600C4B0022DA600B4B00221A6136
:1018F000094B0C225A61084B00229A61064B0022C8
:10190000DA61054802F0D2FC0346002B01D000F05A
:1019100045F800BF80BD00BF200300200038014013
:1019200080B586B000AF07F1080300221A605A6044
:101930009A60DA60174B9B69164A43F0040393617F
:10194000144B9B6903F004037B607B68114B9B691C
:10195000104A43F0080393610E4B9B6903F00803A0
:101960003B603B680022F0210B4800F089FEF02329
:10197000BB600123FB6000233B6102237B6107F115
:1019800008031946044800F0F7FC00BF1837BD46AD
:1019900080BD00BF001002400008014080B400AFCD
:1019A00072B600BFFEE7000080B485B000AF154BF3
:1019B0009B69144A43F001039361124B9B6903F046
:1019C0000103BB60BB680F4BDB690E4A43F08053D9
:1019D000D3610C4BDB6903F080537B607B680A4B5F
:1019E0005B68FB60FB6823F0E063FB60FB6843F02F
:1019F0000073FB60044AFB68536000BF1437BD46A8
:101A000080BC7047001002400000014080B58AB0E1
:101A100000AF786007F1140300221A605A609A60E0
:101A2000DA607B681B681D4A934232D11C4B9B696C
:101A30001B4A43F008039361194B9B6903F00803A9
:101A40003B613B694FF440737B611223BB6103230D
:101A50003B6207F114031946124800F08DFC124B4B
:101A60005B687B627B6A43F0E0637B627B6A43F086
:101A700002037B620C4A7B6A5360094BDB69084AAC
:101A800043F40013D361064BDB6903F40013FB60DE
:101A9000FB6800BF2837BD4680BD00BF0054004032
:101AA00000100240000C01400000014080B584B0ED
:101AB00000AF78607B681B680D4A934213D10D4BD1
:101AC0009B690C4A43F4006393610A4B9B6903F4DE
:101AD0000063FB60FB6800220221192000F063FB19
:101AE000192000F07CFB00BF1037BD4680BD00BF51
:101AF000002C01400010024080B58CB000AF78602F
:101B000007F11C0300221A605A609A60DA607B6851
:101B10001B68334A934236D1324BDB69314A43F07A
:101B20000203D3612F4BDB6903F00203BB61BB6986
:101B30002C4B9B692B4A43F008039361294B9B690B
:101B400003F008037B617B693023FB6100233B6268
:101B500001237B6207F11C031946234800F00CFCAB
:101B6000224B5B68FB62FB6A23F44063FB62FB6A07
:101B700043F0E063FB62FB6A43F40063FB621B4AD1
:101B8000FB6A536028E07B681B68194A934223D1A3
:101B9000144BDB69134A43F00403D361114BDB6937
:101BA00003F004033B613B690E4B9B690D4A43F014
:101BB000080393610B4B9B6903F00803FB60FB6810
:101BC000C023FB6100233B6201237B6207F11C03FE
:101BD0001946054800F0D0FB00BF3037BD4680BD38
:101BE0000004004000100240000C014000000140D1
:101BF0000008004080B588B000AF786007F110039E
:101C000000221A605A609A60DA607B681B68204A7A
:101C1000934239D11F4B9B691E4A43F48043936121
:101C20001C4B9B6903F48043FB60FB68194B9B6969
:101C3000184A43F004039361164B9B6903F00403B5
:101C4000BB60BB684FF400733B6102237B610323DD
:101C5000FB6107F1100319460F4800F08DFB4FF4AC
:101C600080633B6100237B610023BB6107F11003AC
:101C70001946094800F080FB00220121252000F0D0
:101C800092FA252000F0ABFA00BF2037BD4680BD98
:101C900000380140001002400008014080B400AF4D
:101CA000FEE780B400AFFEE780B400AFFEE780B48B
:101CB00000AFFEE780B400AFFEE780B400AF00BF26
:101CC000BD4680BC704780B400AF00BFBD4680BC3D
:101CD000704780B400AF00BFBD4680BC704780B580
:101CE00000AF00F049F900BF80BD000080B500AF33
:101CF000024801F05BFF00BF80BD00BF480200202A
:101D000080B500AF024802F047FB00BF80BD00BFB6
:101D10002003002080B400AF01231846BD4680BCDC
:101D2000704780B582B000AF7860396004F06EF91A
:101D3000034616221A604FF0FF3318460837BD4697
:101D400080BD80B582B000AF78604FF0FF31786819
:101D5000FFF7E7FFFEE780B586B000AFF860B96037
:101D60007A6000237B610AE0AFF300800146BB6824
:101D70005A1CBA60CAB21A707B6901337B617A69F6
:101D80007B689A42F0DB7B6818461837BD4680BDF9
:101D900080B586B000AFF860B9607A6000237B61DF
:101DA00009E0BB685A1CBA601B781846AFF3008084
:101DB0007B6901337B617A697B689A42F1DB7B68DE
:101DC00018461837BD4680BD80B483B000AF786038
:101DD0004FF0FF3318460C37BD4680BC704780B4C7
:101DE00083B000AF786039603B684FF400525A60AE
:101DF000002318460C37BD4680BC704780B483B0C2
:101E000000AF7860012318460C37BD4680BC704790
:101E100080B485B000AFF860B9607A6000231846DE
:101E20001437BD4680BC704780B586B000AF78607F
:101E3000144A154BD31A7B617B693B61134B1B68BA
:101E4000002B02D1114B124A1A60104B1A687B68A2
:101E500013443A699A4207D204F0D8F803460C2298
:101E60001A604FF0FF3309E0084B1B68FB60074B1B
:101E70001A687B681344054A1360FB6818461837D4
:101E8000BD4680BD0050002000040000A4030020D7
:101E9000F804002080B400AF00BFBD4680BC70478E
:101EA000FFF7F8FF0B480C490C4A002302E0D45816
:101EB000C4500433C4188C42F9D3094A094C002396
:101EC00001E013600432A242FBD304F0A5F8FFF74F
:101ED000EFFA704700000020D8010020409C000865
:101EE000D8010020F8040020FEE7000080B500AF14
:101EF000084B1B68074A43F010031360032000F0EF
:101F000047F90F2000F008F8FFF74EFD00231846B0
:101F100080BD00BF0020024080B582B000AF786075
:101F2000124B1A68124B1B7819464FF47A73B3FBA5
:101F3000F1F3B2FBF3F3184600F05FF90346002B10
:101F400001D001230EE07B680F2B0AD800227968AC
:101F50004FF0FF3000F027F9064A7B68136000233A
:101F600000E0012318460837BD4680BD040000206C
:101F70000C0000200800002080B400AF054B1B7847
:101F80001A46054B1B681344034A136000BFBD4645
:101F900080BC70470C000020A803002080B400AF74
:101FA000024B1B681846BD4680BC7047A803002042
:101FB00080B584B000AF7860FFF7F0FFB8607B6851
:101FC000FB60FB68B3F1FF3F05D00A4B1B781A4654
:101FD000FB681344FB6000BFFFF7E0FF0246BB68ED
:101FE000D31AFA689A42F7D800BF00BF1037BD462F
:101FF00080BD00BF0C00002080B485B000AF7860C9
:102000007B6803F00703FB600C4BDB68BB60BA68BE
:102010004FF6FF031340BB60FB681A02BB68134313
:1020200043F0BF6343F40033BB60044ABB68D36032
:1020300000BF1437BD4680BC704700BF00ED00E014
:1020400080B400AF044BDB681B0A03F0070318469B
:10205000BD4680BC704700BF00ED00E080B483B097
:1020600000AF0346FB7197F90730002B0BDBFB79C0
:1020700003F01F02064997F907305B09012000FAB7
:1020800002F241F8232000BF0C37BD4680BC7047E8
:1020900000E100E080B483B000AF03463960FB711B
:1020A00097F90730002B0ADB3B68DAB20C4997F945
:1020B00007301201D2B20B4483F800230AE03B68D8
:1020C000DAB20849FB7903F00F03043B1201D2B2E4
:1020D0000B441A7600BF0C37BD4680BC704700BF6A
:1020E00000E100E000ED00E080B489B000AFF860EE
:1020F000B9607A60FB6803F00703FB61FB69C3F119
:102100000703042B28BF0423BB61FB690433062BA0
:1021100002D9FB69033B00E000237B614FF0FF32F3
:10212000BB6902FA03F3DA43BB681A407B699A4041
:102130004FF0FF317B6901FA03F3D9437B680B4011
:10214000134318462437BD4680BC704780B582B023
:1021500000AF78607B68013BB3F1807F01D301233E
:102160000FE00A4A7B68013B53600F214FF0FF30BC
:10217000FFF790FF054B00229A60044B07221A607C
:10218000002318460837BD4680BD00BF10E000E0C0
:1021900080B582B000AF78607868FFF72DFF00BF90
:1021A0000837BD4680BD80B586B000AF0346B96034
:1021B0007A60FB7300237B61FFF742FF78617A68E6
:1021C000B9687869FFF790FF024697F90F3011461A
:1021D0001846FFF75FFF00BF1837BD4680BD80B5CA
:1021E00082B000AF0346FB7197F907301846FFF73E
:1021F00035FF00BF0837BD4680BD80B582B000AF57
:1022000078607868FFF7A2FF034618460837BD4696
:1022100080BD80B485B000AF78600023FB737B681D
:1022200093F82130DBB2022B08D07B6804229A633A
:102230007B68002283F82020012320E07B681B6854
:102240001A687B681B6822F00E021A607B681B68A4
:102250001A687B681B6822F001021A607B681A6C9E
:102260007B68DB6B012101FA02F25A607B68012274
:1022700083F821207B68002283F82020FB7B18460E
:102280001437BD4680BC704780B584B000AF78601D
:102290000023FB737B6893F82130DBB2022B05D05F
:1022A0007B6804229A630123FB7351E07B681B68FF
:1022B0001A687B681B6822F00E021A607B681B6834
:1022C0001A687B681B6822F001021A607B681B6831
:1022D000224A934229D07B681B68214A934222D02C
:1022E0007B681B681F4A93421AD07B681B681E4A92
:1022F000934212D07B681B681C4A93420AD07B68C9
:102300001B681B4A934202D14FF480130EE04FF03A
:1023100080730BE04FF4803308E04FF4805305E006
:102320004FF4807302E0102300E00123114A536050
:102330007B68012283F821207B68002283F820201B
:102340007B685B6B002B03D07B685B6B786898477E
:10235000FB7B18461037BD4680BD00BF0800024019
:102360001C0002403000024044000240580002407D
:102370006C0002400000024080B48BB000AF786077
:10238000396000237B6200233B6269E101227B6AA2
:1023900002FA03F3FB613B681B68FA691340BB61F7
:1023A000BA69FB699A4240F058813B685B689A4A77
:1023B00093425ED0984A934275D8984A934258D037
:1023C000964A93426FD8964A934252D0944A934287
:1023D00069D8944A93424CD0924A934263D8924A25
:1023E000934246D0904A93425DD8122B2AD8122BA2
:1023F00059D801A252F823F0732400084D24000894
:102400005F240008A1240008A7240008A7240008CE
:10241000A7240008A7240008A7240008A724000870
:10242000A7240008A7240008A7240008A724000860
:10243000A7240008A7240008A724000855240008A2
:1024400069240008794A934213D02CE03B68DB688A
:102450003B6229E03B68DB6804333B6224E03B6875
:10246000DB6808333B621FE03B68DB680C333B6290
:102470001AE03B689B68002B02D104233B6213E007
:102480003B689B68012B05D108233B627B68FA6996
:102490001A6109E008233B627B68FA695A6103E02C
:1024A00000233B6200E000BFBB69FF2B01D87B68C3
:1024B00001E07B6804337B61BB69FF2B02D87B6A38
:1024C0009B0002E07B6A083B9B003B617B691A68CA
:1024D0000F213B6901FA03F3DB431A40396A3B6978
:1024E00001FA03F31A437B691A603B685B6803F0E7
:1024F0008053002B00F0B1804D4B9B694C4A43F058
:10250000010393614A4B9B6903F00103BB60BB6805
:10251000484A7B6A9B08023352F82330FB607B6A8F
:1025200003F003039B000F2202FA03F3DB43FA6874
:102530001340FB607B68404A934213D07B683F4A5C
:1025400093420DD07B683E4A934207D07B683D4A58
:10255000934201D1032306E0042304E0022302E0B6
:10256000012300E000237A6A02F003029200934004
:10257000FA681343FB602F497B6A9B080233FA68B1
:1025800041F823203B685B6803F48013002B06D0DE
:102590002D4B9A682C49BB6913438B6006E02A4B8C
:1025A0009A68BB69DB43284913408B603B685B68D2
:1025B00003F40013002B06D0234BDA682249BB69D1
:1025C0001343CB6006E0204BDA68BB69DB431E494E
:1025D0001340CB603B685B6803F40033002B06D0EC
:1025E000194B5A681849BB6913434B6006E0164BF8
:1025F0005A68BB69DB43144913404B603B685B6816
:1026000003F48033002B21D00F4B1A680E49BB69AD
:1026100013430B6021E000BF0000321000003110B6
:102620000000221000002110000012100000111004
:10263000001002400000014000080140000C014071
:102640000010014000140140000401400B4B1A68C7
:10265000BB69DB43094913400B607B6A01337B6232
:102660003B681A687B6A22FA03F3002B7FF48EAE74
:1026700000BF00BF2C37BD4680BC7047000401403E
:1026800080B483B000AF78600B467B8013467B70CC
:102690007B78002B03D07A887B681A6103E07B8803
:1026A0001A047B681A6100BF0C37BD4680BC7047B6
:1026B00080B584B000AF78607B68002B01D1012326
:1026C0002BE17B6893F83D30DBB2002B06D17B68B1
:1026D000002283F83C207868FFF798F97B68242271
:1026E00083F83D207B681B681A687B681B6822F0B2
:1026F00001021A607B681B681A687B681B6842F4D9
:1027000000421A607B681B681A687B681B6822F4A9
:1027100000421A6001F032F8F8607B685B68814A19
:10272000934207D8FB68804A934294BF0123002359
:10273000DBB206E0FB687D4A934294BF012300238D
:10274000DBB2002B01D00123E7E0FB68784AA2FB53
:1027500003239B0CBB607B681B685B6823F03F0115
:102760007B681B68BA680A435A607B681B681B6AEF
:1027700023F03F017B685B686A4A934202D8BB68DA
:10278000013309E0BB684FF4967202FB03F3694A18
:10279000A2FB03239B0901337A6812680B4313627F
:1027A0007B681B68DB6923F44F4222F0FF027B68E1
:1027B0005B685C498B4219D8FB68591E7B685B6873
:1027C0005B00B1FBF3F3591C40F6FC730B40002B8C
:1027D0000AD0FB68591E7B685B685B00B1FBF3F3B2
:1027E0000133C3F30B0351E004234FE07B689B6884
:1027F000002B11D1FB68581E7B6859680B465B00A3
:102800000B44B0FBF3F30133C3F30B03002B0CBFFA
:1028100001230023DBB212E0FB68581E7B68596875
:102820000B469B000B4499000B44B0FBF3F30133C0
:10283000C3F30B03002B0CBF01230023DBB2002BDF
:1028400001D0012322E07B689B68002B0ED1FB683E
:10285000581E7B6859680B465B000B44B0FBF3F3D2
:102860000133C3F30B0343F400430FE0FB68581E2E
:102870007B6859680B469B000B4499000B44B0FBE6
:10288000F3F30133C3F30B0343F44043796809685E
:102890001343CB617B681B681B6823F0C0017B6816
:1028A000DA697B681B6A1A437B681B680A431A60F3
:1028B0007B681B689B6823F4034323F0FF037A685B
:1028C00011697A68D26811437A6812680B43936081
:1028D0007B681B68DB6823F0FF017B685A697B68B3
:1028E0009B691A437B681B680A43DA607B681B6834
:1028F0001A687B681B6842F001021A607B6800223C
:102900001A647B68202283F83D207B6800221A63CA
:102910007B68002283F83E20002318461037BD460E
:1029200080BD00BFA08601007F841E00FF083D001F
:1029300083DE1B43D34D621080B588B002AFF860D0
:102940007A601A460B467B8113463B81FFF726FBD4
:102950007861FB6893F83D30DBB2202B40F0E080DB
:102960007B690093192301227049F86800F064F92B
:102970000346002B01D00223D3E0FB6893F83C30E0
:10298000012B01D10223CCE0FB68012283F83C201B
:10299000FB681B681B6803F00103012B07D0FB6871
:1029A0001B681A68FB681B6842F001021A60FB682A
:1029B0001B681A68FB681B6822F400621A60FB68D7
:1029C000212283F83D20FB68102283F83E20FB681B
:1029D00000221A64FB687A685A62FB683A895A8551
:1029E000FB685B8D9AB2FB681A85FB68504ADA6215
:1029F00079897B693A6AF86800F09CF80346002BF5
:102A000001D001238DE000233B61FB681B685B69FB
:102A10003B61FB681B689B693B613B6966E07A69C7
:102A2000396AF86800F022FA0346002B0DD0FB68E3
:102A30001B6C042B07D1FB681B681A68FB681B68BA
:102A400042F400721A6001236BE0FB685B6A1A783B
:102A5000FB681B681A61FB685B6A5A1CFB685A6258
:102A6000FB685B8D9BB2013B9AB2FB685A85FB68A1
:102A70001B8D013B9AB2FB681A85FB681B685B697A
:102A800003F00403042B1BD1FB681B8D002B17D014
:102A9000FB685B6A1A78FB681B681A61FB685B6AF3
:102AA0005A1CFB685A62FB685B8D9BB2013B9AB271
:102AB000FB685A85FB681B8D013B9AB2FB681A853F
:102AC0007A69396AF86800F019FA0346002B0DD0CC
:102AD000FB681B6C042B07D1FB681B681A68FB683A
:102AE0001B6842F400721A6001231AE0FB681B8D18
:102AF000002B94D1FB681B681A68FB681B6842F4C2
:102B000000721A60FB68202283F83D20FB680022D7
:102B100083F83E20FB68002283F83C20002300E07D
:102B2000022318461837BD4680BD00BF02001000C2
:102B30000000FFFF80B588B002AFF8607A603B60AC
:102B40000B467B81FB68DB6A7B617B69082B06D0C7
:102B50007B69012B03D07B6913F5803F08D1FB68AB
:102B60001B681A68FB681B6842F480721A600BE0ED
:102B7000FB681B6B122B07D1FB681B681A68FB688C
:102B80001B6842F480721A603B6800937B680022E5
:102B90004FF00111F86800F04FF80346002B0DD0FC
:102BA000FB681B681B6803F48073B3F5807F03D157
:102BB000FB684FF400721A64032335E0FB681B695D
:102BC000B3F5804F08D17B89DBB21A46FB681B68DE
:102BD00002F0FE021A611BE07B89DB11DBB203F01D
:102BE0000603DBB263F00F03DAB2FB681B681A61FD
:102BF0003B687A680E49F86800F098F80346002BA5
:102C000001D0012310E07B89DAB2FB681B681A61EE
:102C10003B687A680749F86800F088F80346002B9B
:102C200001D0012300E0002318461837BD4680BDBF
:102C3000080001000200010080B584B000AFF86018
:102C4000B9603B601346FB7148E03B68B3F1FF3F5E
:102C500044D0FFF7A3F90246BB69D31A3A689A42F7
:102C600002D33B68002B39D1BB681B0CDBB2012BB4
:102C70000DD1FB681B685B69DA43BB6813409BB2EC
:102C8000002B0CBF01230023DBB21A460CE0FB68CB
:102C90001B689B69DA43BB6813409BB2002B0CBFD7
:102CA00001230023DBB21A46FB799A4216D1FB6856
:102CB00000221A63FB68202283F83D20FB68002273
:102CC00083F83E20FB681B6C43F02002FB681A640B
:102CD000FB68002283F83C20012323E0BB681B0C27
:102CE000DBB2012B0DD1FB681B685B69DA43BB6863
:102CF00013409BB2002B0CBF01230023DBB21A460A
:102D00000CE0FB681B689B69DA43BB6813409BB20D
:102D1000002B0CBF01230023DBB21A46FB799A4239
:102D200093D0002318461037BD4680BD80B584B0CF
:102D300000AFF860B9607A603B6071E0FB681B68C7
:102D40005B6903F48063B3F5806F23D1FB681B6874
:102D50001A68FB681B6842F400721A60FB681B6803
:102D60006FF480625A61FB6800221A63FB682022BC
:102D700083F83D20FB68002283F83E20FB681B6C33
:102D800043F00402FB681A64FB68002283F83C20CD
:102D9000012367E07B68B3F1FF3F41D0FFF7FEF806
:102DA00002463B68D31A7A689A4202D37B68002BAA
:102DB00036D1BB681B0CDBB2012B0CD1FB681B6846
:102DC0005B69DA43BB6813409BB2002B14BF01233D
:102DD0000023DBB20BE0FB681B689B69DA43BB682E
:102DE00013409BB2002B14BF01230023DBB2002B46
:102DF00016D0FB6800221A63FB68202283F83D206E
:102E0000FB68002283F83E20FB681B6C43F0200225
:102E1000FB681A64FB68002283F83C20012321E050
:102E2000BB681B0CDBB2012B0CD1FB681B685B6918
:102E3000DA43BB6813409BB2002B14BF012300236D
:102E4000DBB20BE0FB681B689B69DA43BB6813408D
:102E50009BB2002B14BF01230023DBB2002B7FF4B5
:102E60006DAF002318461037BD4680BD80B584B0D5
:102E700000AFF860B9607A6034E0F86800F086F876
:102E80000346002B01D0012334E0BB68B3F1FF3FC0
:102E900028D0FFF783F802467B68D31ABA689A42B3
:102EA00002D3BB68002B1DD1FB681B685B6903F074
:102EB0008003802B16D0FB6800221A63FB68202257
:102EC00083F83D20FB68002283F83E20FB681B6CE2
:102ED00043F02002FB681A64FB68002283F83C2060
:102EE000012307E0FB681B685B6903F08003802B0C
:102EF000C3D1002318461037BD4680BD80B584B0CD
:102F000000AFF860B9607A6034E0F86800F03EF82D
:102F10000346002B01D0012334E0BB68B3F1FF3F2F
:102F200028D0FFF73BF802467B68D31ABA689A426A
:102F300002D3BB68002B1DD1FB681B685B6903F0E3
:102F40000403042B16D0FB6800221A63FB682022BE
:102F500083F83D20FB68002283F83E20FB681B6C51
:102F600043F02002FB681A64FB68002283F83C20CF
:102F7000012307E0FB681B685B6903F00403042B73
:102F8000C3D1002318461037BD4680BD80B483B03E
:102F900000AF78607B681B685B6903F48063B3F5FE
:102FA000806F1BD17B681B686FF480625A617B68FD
:102FB00000221A637B68202283F83D207B68002270
:102FC00083F83E207B681B6C43F004027B681A6424
:102FD0007B68002283F83C20012300E00023184690
:102FE0000C37BD4680BC704780B586B000AF7860B6
:102FF0007B68002B01D1012372E27B681B6803F020
:103000000103002B00F08780924B5B6803F00C03F8
:10301000042B0CD08F4B5B6803F00C03082B12D1F0
:103020008C4B5B6803F48033B3F5803F0BD1894B45
:103030001B6803F40033002B6CD07B685B68002BAB
:1030400068D101234CE27B685B68B3F5803F06D111
:10305000804B1B687F4A43F4803313602EE07B680B
:103060005B68002B0CD17B4B1B687A4A23F48033BE
:103070001360784B1B68774A23F4802313601DE0AC
:103080007B685B68B3F5A02F0CD1724B1B68714A4B
:1030900043F4802313606F4B1B686E4A43F4803304
:1030A00013600BE06B4B1B686A4A23F48033136098
:1030B000684B1B68674A23F4802313607B685B6856
:1030C000002B13D0FEF76AFF386108E0FEF766FFB9
:1030D00002463B69D31A642B01D9032300E25D4BFE
:1030E0001B6803F40033002BF0D014E0FEF756FF0A
:1030F000386108E0FEF752FF02463B69D31A642BA1
:1031000001D90323ECE1534B1B6803F40033002B7C
:10311000F0D100E000BF7B681B6803F00203002BC6
:1031200063D04C4B5B6803F00C03002B0BD0494B76
:103130005B6803F00C03082B1CD1464B5B6803F45F
:103140008033002B16D1434B1B6803F00203002B86
:1031500005D07B681B69012B01D00123C0E13D4BE9
:103160001B6823F0F8027B685B69DB003949134375
:103170000B603AE07B681B69002B20D0364B0122A4
:103180001A60FEF70BFF386108E0FEF707FF024602
:103190003B69D31A022B01D90323A1E12D4B1B68F4
:1031A00003F00203002BF0D02A4B1B6823F0F80237
:1031B0007B685B69DB00274913430B6015E0264BF6
:1031C00000221A60FEF7EAFE386108E0FEF7E6FE2C
:1031D00002463B69D31A022B01D9032380E11D4B20
:1031E0001B6803F00203002BF0D17B681B6803F01F
:1031F0000803002B3AD07B689B69002B19D0174B32
:1032000001221A60FEF7CAFE386108E0FEF7C6FE2A
:1032100002463B69D31A022B01D9032360E10D4B0F
:103220005B6A03F00203002BF0D0012000F0CEFA1D
:103230001CE00A4B00221A60FEF7B0FE38610FE076
:10324000FEF7ACFE02463B69D31A022B08D90323D2
:1032500046E100BF001002400000424280044242AA
:10326000924B5B6A03F00203002BE9D17B681B6879
:1032700003F00403002B00F0A6800023FB758B4BAA
:10328000DB6903F08053002B0DD1884BDB69874A43
:1032900043F08053D361854BDB6903F08053BB60FF
:1032A000BB680123FB75824B1B6803F48073002B02
:1032B00018D17F4B1B687E4A43F480731360FEF77E
:1032C0006DFE386108E0FEF769FE02463B69D31ADD
:1032D000642B01D9032303E1754B1B6803F480734E
:1032E000002BF0D07B68DB68012B06D16F4B1B6A8B
:1032F0006E4A43F0010313622DE07B68DB68002B0C
:103300000CD16A4B1B6A694A23F001031362674BB5
:103310001B6A664A23F0040313621CE07B68DB68C7
:10332000052B0CD1614B1B6A604A43F00403136206
:103330005E4B1B6A5D4A43F0010313620BE05B4B7B
:103340001B6A5A4A23F001031362584B1B6A574AFF
:1033500023F0040313627B68DB68002B15D0FEF7B3
:103360001DFE38610AE0FEF719FE02463B69D31ADA
:1033700041F28832934201D90323B1E04B4B1B6ADF
:1033800003F00203002BEED014E0FEF707FE3861D5
:103390000AE0FEF703FE02463B69D31A41F2883287
:1033A000934201D903239BE0404B1B6A03F00203C5
:1033B000002BEED1FB7D012B05D13C4BDB693B4A59
:1033C00023F08053D3617B68DB69002B00F087809A
:1033D000364B5B6803F00C03082B61D07B68DB691C
:1033E000022B46D1334B00221A60FEF7D7FD38611D
:1033F00008E0FEF7D3FD02463B69D31A022B01D940
:1034000003236DE0294B1B6803F00073002BF0D100
:103410007B681B6AB3F5803F08D1244B5B6823F4BB
:1034200000327B689B68214913434B601F4B5B68EC
:1034300023F474127B68196A7B685B6A0B431B492F
:1034400013434B601B4B01221A60FEF7A7FD386146
:1034500008E0FEF7A3FD02463B69D31A022B01D90F
:1034600003233DE0114B1B6803F00073002BF0D0E9
:1034700035E0104B00221A60FEF790FD386108E03D
:10348000FEF78CFD02463B69D31A022B01D90323B8
:1034900026E0064B1B6803F00073002BF0D11EE002
:1034A0007B68DB69012B07D1012319E00010024082
:1034B00000700040600042420B4B5B68FB60FB68A1
:1034C00003F480327B681B6A9A4206D1FB6803F4DE
:1034D00070127B685B6A9A4201D0012300E00023EE
:1034E00018461837BD4680BD0010024080B584B034
:1034F00000AF786039607B68002B01D10123D0E0F8
:103500006A4B1B6803F007033A689A4210D9674B6D
:103510001B6823F0070265493B6813430B60634B4C
:103520001B6803F007033A689A4201D00123B8E010
:103530007B681B6803F00203002B20D07B681B68AC
:1035400003F00403002B05D0594B5B68584A43F441
:10355000E06353607B681B6803F00803002B05D011
:10356000534B5B68524A43F460535360504B5B6863
:1035700023F0F0027B689B684D4913434B607B68E6
:103580001B6803F00103002B40D07B685B68012BB4
:1035900007D1474B1B6803F40033002B15D10123DF
:1035A0007FE07B685B68022B07D1414B1B6803F00F
:1035B0000073002B09D1012373E03D4B1B6803F01E
:1035C0000203002B01D101236BE0394B5B6823F030
:1035D00003027B685B68364913434B60FEF7DEFCF1
:1035E000F8600AE0FEF7DAFC0246FB68D31A41F203
:1035F0008832934201D9032353E02D4B5B6803F0DB
:103600000C027B685B689B009A42EBD1274B1B68DE
:1036100003F007033A689A4210D2244B1B6823F048
:10362000070222493B6813430B60204B1B6803F0E1
:1036300007033A689A4201D0012332E07B681B6895
:1036400003F00403002B08D0194B5B6823F4E062FD
:103650007B68DB68164913434B607B681B6803F08B
:103660000803002B09D0124B5B6823F460527B687F
:103670001B69DB000E4913434B6000F021F8024642
:103680000B4B5B681B0903F00F030A49CB5C22FA62
:1036900003F3094A1360094B1B681846FEF73CFC0C
:1036A000002318461037BD4680BD00BF00200240F1
:1036B00000100240E09700080400002008000020ED
:1036C00080B487B000AF0023FB600023BB60002301
:1036D0007B6100237B6000233B611E4B5B68FB60CA
:1036E000FB6803F00C03042B02D0082B03D027E067
:1036F000194B3B6127E0FB689B0C03F00F03174A53
:10370000D35C7B60FB6803F48033002B10D0114B3B
:103710005B685B0C03F00103114AD35CBB607B6800
:103720000D4A03FB02F2BB68B2FBF3F37B6104E0DA
:103730007B680C4A02FB03F37B617B693B6102E01F
:10374000054B3B6100BF3B6918461C37BD4680BC3A
:10375000704700BF0010024000127A00F89700087E
:103760000898000800093D0080B400AF024B1B68B8
:103770001846BD4680BC70470400002080B500AFED
:10378000FFF7F2FF0246054B5B681B0A03F00703D5
:103790000349CB5C22FA03F3184680BD00100240B7
:1037A000F097000880B500AFFFF7DEFF0246054B3B
:1037B0005B68DB0A03F007030349CB5C22FA03F3DF
:1037C000184680BD00100240F097000880B485B014
:1037D00000AF78600A4B1B680A4AA2FB03235B0A0E
:1037E0007A6802FB03F3FB6000BFFB685A1EFA60B5
:1037F000002BF9D100BF00BF1437BD4680BC704715
:1038000004000020D34D621080B582B000AF786014
:103810007B68002B01D1012341E07B6893F83D30A8
:10382000DBB2002B06D17B68002283F83C2078684D
:10383000FEF73CF97B68022283F83D207B681A681A
:103840007B6804331946104600F0A4FB7B68012214
:1038500083F846207B68012283F83E207B680122A2
:1038600083F83F207B68012283F840207B68012297
:1038700083F841207B68012283F842207B68012283
:1038800083F843207B68012283F844207B6801226F
:1038900083F845207B68012283F83D2000231846E9
:1038A0000837BD4680BD000080B485B000AF7860A9
:1038B0007B6893F83D30DBB2012B01D001233AE065
:1038C0007B68022283F83D207B681B68DA687B688E
:1038D0001B6842F00102DA607B681B68184A934259
:1038E0000ED07B681B68B3F1804F09D07B681B68E2
:1038F000144A934204D07B681B68134A934211D147
:103900007B681B689B6803F00703FB60FB68062B62
:1039100010D07B681B681A687B681B6842F0010244
:103920001A6007E07B681B681A687B681B6842F0B6
:1039300001021A60002318461437BD4680BC704748
:10394000002C0140000400400008004080B586B013
:1039500000AF786039607B68002B01D1012393E0D0
:103960007B6893F83D30DBB2002B06D17B680022E8
:1039700083F83C207868FEF7BFF87B68022283F862
:103980003D207B681B689B687A68126823F480433B
:1039900023F0070393607B681A687B680433194639
:1039A000104600F0F7FA7B681B689B687B617B68B8
:1039B0001B689B693B617B681B681B6AFB603B68FB
:1039C0001B687A6913437B613B6923F4407323F0DE
:1039D00003033B613B689A683B689B691B02134386
:1039E0003A6913433B613B6923F4406323F00C03C2
:1039F0003B613B6923F4704323F0F0033B613B6878
:103A0000DA683B68DB691B0213433A6913433B6185
:103A10003B681B691A013B681B6A1B0313433A6925
:103A200013433B61FB6823F02203FB603B685A6849
:103A30003B685B691B011343FA681343FB607B68B7
:103A40001B687A699A607B681B683A699A617B682F
:103A50001B68FA681A627B68012283F846207B683B
:103A6000012283F83E207B68012283F83F207B6897
:103A7000012283F842207B68012283F843207B687F
:103A8000012283F83D20002318461837BD4680BD2B
:103A900080B584B000AF786039607B6893F83E30C1
:103AA000FB737B6893F83F30BB737B6893F84230BD
:103AB0007B737B6893F843303B733B68002B10D1DA
:103AC000FB7B012B02D17B7B012B01D0012369E021
:103AD0007B68022283F83E207B68022283F8422022
:103AE00031E03B68042B10D1BB7B012B02D13B7B27
:103AF000012B01D0012355E07B68022283F83F208F
:103B00007B68022283F843201DE0FB7B012B08D158
:103B1000BB7B012B05D17B7B012B02D13B7B012B96
:103B200001D001233EE07B68022283F83E207B68BF
:103B3000022283F83F207B68022283F842207B68C0
:103B4000022283F843203B68002B03D03B68042B00
:103B500008D00FE07B681B6801220021184600F0A6
:103B600011FB16E07B681B6801220421184600F057
:103B700009FB0EE07B681B6801220021184600F05B
:103B800001FB7B681B6801220421184600F0FAFA49
:103B900000BF7B681B681A687B681B6842F00102E3
:103BA0001A60002318461037BD4680BD80B582B02C
:103BB00000AF78607B681B681B6903F00203022B6F
:103BC00022D17B681B68DB6803F00203022B1BD148
:103BD0007B681B686FF002021A617B6801221A770A
:103BE0007B681B689B6903F00303002B03D0786894
:103BF00000F0B4F905E0786800F0A7F9786800F003
:103C0000B6F97B6800221A777B681B681B6903F092
:103C10000403042B22D17B681B68DB6803F00403D8
:103C2000042B1BD17B681B686FF004021A617B6850
:103C300002221A777B681B689B6903F44073002B90
:103C400003D0786800F08AF905E0786800F07DF923
:103C5000786800F08CF97B6800221A777B681B6813
:103C60001B6903F00803082B22D17B681B68DB6803
:103C700003F00803082B1BD17B681B686FF0080258
:103C80001A617B6804221A777B681B68DB6903F082
:103C90000303002B03D0786800F060F905E0786832
:103CA00000F053F9786800F062F97B6800221A7717
:103CB0007B681B681B6903F01003102B22D17B6803
:103CC0001B68DB6803F01003102B1BD17B681B689B
:103CD0006FF010021A617B6808221A777B681B68F4
:103CE000DB6903F44073002B03D0786800F036F9E9
:103CF00005E0786800F029F9786800F038F97B6809
:103D000000221A777B681B681B6903F00103012BF3
:103D10000ED17B681B68DB6803F00103012B07D120
:103D20007B681B686FF001021A617868FDF728FA5A
:103D30007B681B681B6903F08003802B0ED17B68B6
:103D40001B68DB6803F08003802B07D17B681B684E
:103D50006FF080021A61786800F09FFA7B681B6838
:103D60001B6903F04003402B0ED17B681B68DB68A6
:103D700003F04003402B07D17B681B686FF04002C3
:103D80001A61786800F0FCF87B681B681B6903F017
:103D90002003202B0ED17B681B68DB6803F0200317
:103DA000202B07D17B681B686FF020021A617868AE
:103DB00000F06AFA00BF0837BD4680BD80B584B008
:103DC00000AF786039600023FB737B6893F83C3068
:103DD000012B01D10223B4E07B68012283F83C204F
:103DE0007B68022283F83D207B681B689B68BB6070
:103DF000BB6823F07703BB60BB6823F47F43BB60E1
:103E00007B681B68BA689A603B681B68B3F5005F03
:103E10003ED0B3F5005F00F28780B3F5805F00F01D
:103E20008680B3F5805F7FD8702B1AD0702B7BD83B
:103E3000602B50D0602B77D8502B3CD0502B73D8B0
:103E4000402B58D0402B6FD8302B64D0302B6BD800
:103E5000202B60D0202B67D8002B5CD0102B5AD0A1
:103E600062E07B6818683B6899683B685A683B6801
:103E7000DB6800F068F97B681B689B68BB60BB6807
:103E800043F07703BB607B681B68BA689A604FE0B9
:103E90007B6818683B6899683B685A683B68DB68D0
:103EA00000F051F97B681B689A687B681B6842F4D4
:103EB00080429A603CE07B6818683B6859683B68C0
:103EC000DB681A4600F0C8F87B681B68502118466A
:103ED00000F01FF92CE07B6818683B6859683B6864
:103EE000DB681A4600F0E6F87B681B68602118461C
:103EF00000F00FF91CE07B6818683B6859683B6864
:103F0000DB681A4600F0A8F87B681B684021184659
:103F100000F0FFF80CE07B681A683B681B681946E4
:103F2000104600F0F6F803E00123FB7300E000BF49
:103F30007B68012283F83D207B68002283F83C20C7
:103F4000FB7B18461037BD4680BD80B483B000AF00
:103F5000786000BF0C37BD4680BC704780B483B02A
:103F600000AF786000BF0C37BD4680BC704780B49E
:103F700083B000AF786000BF0C37BD4680BC70478F
:103F800080B483B000AF786000BF0C37BD4680BC02
:103F90007047000080B485B000AF786039607B68FE
:103FA0001B68FB607B68294A93420BD07B68B3F1A6
:103FB000804F07D07B68264A934203D07B68254A0E
:103FC000934208D1FB6823F07003FB603B685B6899
:103FD000FA681343FB607B681C4A93420BD07B68F2
:103FE000B3F1804F07D07B68194A934203D07B68B6
:103FF000184A934208D1FB6823F44073FB603B6886
:10400000DB68FA681343FB60FB6823F080023B68BF
:104010005B691343FB607B68FA681A603B689A68C7
:104020007B68DA623B681A687B689A627B68074A39
:10403000934203D13B681A697B681A637B6801224B
:104040005A6100BF1437BD4680BC7047002C014048
:10405000000400400008004080B487B000AFF86062
:10406000B9607A60FB681B6A7B61FB681B6A23F09E
:104070000102FB681A62FB689B693B613B6923F0A4
:10408000F0033B617B681B013A6913433B617B6929
:1040900023F00A037B617A69BB6813437B61FB6889
:1040A0003A699A61FB687A691A6200BF1C37BD469B
:1040B00080BC704780B487B000AFF860B9607A60A8
:1040C000FB681B6A7B61FB681B6A23F01002FB68BC
:1040D0001A62FB689B693B613B6923F470433B6157
:1040E0007B681B033A6913433B617B6923F0A003A0
:1040F0007B61BB681B017A6913437B61FB683A698A
:104100009A61FB687A691A6200BF1C37BD4680BCA1
:10411000704780B485B000AF786039607B689B6879
:10412000FB60FB6823F07003FB603A68FB68134395
:1041300043F00703FB607B68FA689A6000BF14379E
:10414000BD4680BC704780B487B000AFF860B960EE
:104150007A603B60FB689B687B617B6923F47F43EB
:104160007B613B681A027B681A43BB6813437A6918
:1041700013437B61FB687A699A6000BF1C37BD46B8
:1041800080BC704780B487B000AFF860B9607A60D7
:10419000BB6803F01F03012202FA03F37B61FB6893
:1041A0001A6A7B69DB431A40FB681A62FB681A6A69
:1041B000BB6803F01F03796801FA03F31A43FB6835
:1041C0001A6200BF1C37BD4680BC704780B485B002
:1041D00000AF786039607B6893F83C30012B01D1E7
:1041E000022346E07B68012283F83C207B680222A0
:1041F00083F83D207B681B685B68FB607B681B68FD
:104200009B68BB60FB6823F07003FB603B681B6826
:10421000FA681343FB607B681B68FA685A607B6826
:104220001B68164A93420ED07B681B68B3F1804F1F
:1042300009D07B681B68124A934204D07B681B68D4
:10424000104A93420CD1BB6823F08003BB603B68EB
:104250005B68BA681343BB607B681B68BA689A6086
:104260007B68012283F83D207B68002283F83C2094
:10427000002318461437BD4680BC7047002C01400F
:10428000000400400008004080B483B000AF7860B4
:1042900000BF0C37BD4680BC704780B483B000AF10
:1042A000786000BF0C37BD4680BC704780B582B0D7
:1042B00000AF78607B68002B01D1012342E07B686E
:1042C00093F84130DBB2002B06D17B68002283F8E3
:1042D00040207868FDF78EFC7B68242283F841201B
:1042E0007B681B68DA687B681B6822F40052DA601E
:1042F000786800F0D5FC7B681B681A697B681B68CE
:1043000022F490421A617B681B685A697B681B68BB
:1043100022F02A025A617B681B68DA687B681B6896
:1043200042F40052DA607B6800225A647B682022E3
:1043300083F841207B68202283F842207B6800229A
:104340005A63002318460837BD4680BD80B584B047
:1043500000AFF860B9601346FB80FB6893F8423009
:10436000DBB2202B12D1BB68002B02D0FB88002BC4
:1043700001D101230BE0FB6800221A63FB881A4677
:10438000B968F86800F0B7FA034600E0022318465F
:104390001037BD4680BD000080B5BAB000AF786070
:1043A0007B681B681B68C7F8E4307B681B68DB68A8
:1043B000C7F8E0307B681B685B69C7F8DC30002316
:1043C000C7F8D8300023C7F8D430D7F8E43003F06A
:1043D0000F03C7F8D830D7F8D830002B0FD1D7F853
:1043E000E43003F02003002B09D0D7F8E03003F0CD
:1043F0002003002B03D0786800F093FB5BE2D7F832
:10440000D830002B00F0DE80D7F8DC3003F0010359
:10441000002B06D1D7F8E03003F49073002B00F0A6
:10442000D180D7F8E43003F00103002B0BD0D7F88C
:10443000E03003F48073002B05D07B685B6C43F0A5
:1044400001027B685A64D7F8E43003F00403002BC0
:104450000BD0D7F8DC3003F00103002B05D07B68CC
:104460005B6C43F002027B685A64D7F8E43003F0D7
:104470000203002B0BD0D7F8DC3003F00103002B34
:1044800005D07B685B6C43F004027B685A64D7F804
:10449000E43003F00803002B11D0D7F8E03003F02C
:1044A0002003002B05D1D7F8DC3003F00103002BEB
:1044B00005D07B685B6C43F008027B685A647B68BC
:1044C0005B6C002B00F0F281D7F8E43003F020039E
:1044D000002B08D0D7F8E03003F02003002B02D0E7
:1044E000786800F01EFB7B681B685B6903F0400383
:1044F000002B14BF01230023DBB2C7F8D4307B6844
:104500005B6C03F00803002B03D1D7F8D430002BE9
:104510004FD0786800F028FA7B681B685B6903F06D
:104520004003002B41D07B681B681433C7F89C30D4
:10453000D7F89C3053E8003FC7F89830D7F8983048
:1045400023F04003C7F8D0307B681B681433D7F8DA
:10455000D020C7F8A820C7F8A430D7F8A410D7F8FF
:10456000A82041E80023C7F8A030D7F8A030002BDE
:10457000D9D17B68DB6B002B13D07B68DB6B7E4A69
:104580005A637B68DB6B1846FDF77EFE0346002B03
:1045900016D07B68DB6B5B6B7A68D26B10469847F2
:1045A0000EE0786800F093F90AE0786800F08FF97F
:1045B00006E0786800F08BF97B6800225A6475E1A8
:1045C00000BF73E17B681B6B012B40F04F81D7F874
:1045D000E43003F01003002B00F04881D7F8E030FE
:1045E00003F01003002B00F041810023BB607B68C7
:1045F0001B681B68BB607B681B685B68BB60BB6833
:104600007B681B685B6903F04003002B00F0B680F9
:104610007B68DB6B1B685B68A7F8BE30B7F8BE3001
:10462000002B00F045817B689B8DB7F8BE209A4235
:1046300080F03E817B68B7F8BE20DA857B68DB6B53
:104640009B69202B00F088807B681B680C33C7F8BF
:104650008830D7F8883053E8003FC7F88430D7F85F
:10466000843023F48073C7F8B8307B681B680C3340
:10467000D7F8B820C7F89420C7F89030D7F8901032
:10468000D7F8942041E80023C7F88C30D7F88C3055
:10469000002BD9D17B681B6814337B677B6F53E891
:1046A000003F3B673B6F23F00103C7F8B4307B68E2
:1046B0001B681433D7F8B420C7F88020FB67F96F64
:1046C000D7F8802041E80023BB67BB6F002BE1D106
:1046D0007B681B6814333B663B6E53E8003FFB6509
:1046E000FB6D23F04003C7F8B0307B681B681433C0
:1046F000D7F8B020FA66BB66B96EFA6E41E80023BF
:104700007B667B6E002BE3D17B68202283F84220FE
:104710007B6800221A637B681B680C33FB64FB6CAC
:1047200053E8003FBB64BB6C23F01003C7F8AC3008
:104730007B681B680C33D7F8AC20BA657B65796D54
:10474000BA6D41E800233B653B6D002BE3D17B68EC
:10475000DB6B1846FDF75DFD7B6802225A637B68C0
:104760009A8D7B68DB8D9BB2D31A9BB21946786811
:1047700000F0B6F89CE000BF2D4A00087B689A8DD7
:104780007B68DB8D9BB2D31AA7F8CE307B68DB8DBC
:104790009BB2002B00F08E80B7F8CE30002B00F0DB
:1047A00089807B681B680C33BB63BB6B53E8003F9D
:1047B0007B637B6B23F49073C7F8C8307B681B68FE
:1047C0000C33D7F8C8207A643B64396C7A6C41E8C2
:1047D0000023FB63FB6B002BE3D17B681B68143366
:1047E0007B627B6A53E8003F3B623B6A23F0010334
:1047F000C7F8C4307B681B681433D7F8C4203A6309
:10480000FB62F96A3A6B41E80023BB62BB6A002B8A
:10481000E3D17B68202283F842207B6800221A6360
:104820007B681B680C333B613B6953E8003FFB60CE
:10483000FB6823F01003C7F8C0307B681B680C339B
:10484000D7F8C020FA61BB61B969FA6941E8002371
:104850007B617B69002BE3D17B6802225A63B7F846
:10486000CE301946786800F03BF823E0D7F8E43002
:1048700003F08003002B09D0D7F8E03003F0800369
:10488000002B03D0786800F0E5F814E0D7F8E430A6
:1048900003F04003002B0ED0D7F8E03003F04003C4
:1048A000002B08D0786800F024F904E000BF02E093
:1048B00000BF00E000BFE837BD4680BD80B483B0D4
:1048C00000AF786000BF0C37BD4680BC704780B435
:1048D00083B000AF786000BF0C37BD4680BC704726
:1048E00080B483B000AF78600B467B8000BF0C378C
:1048F000BD4680BC704780B485B000AFF860B96039
:104900001346FB80FB68BA689A62FB68FA889A854E
:10491000FB68FA88DA85FB6800225A64FB68222269
:1049200083F84220FB681B69002B07D0FB681B68DB
:10493000DA68FB681B6842F48072DA60FB681B6807
:104940005A69FB681B6842F001025A61FB681B68E8
:10495000DA68FB681B6842F02002DA600023184620
:104960001437BD4680BC704780B495B000AF786006
:104970007B681B680C337B637B6B53E8003F3B63B6
:104980003B6B23F49073FB647B681B680C33FA6CFD
:104990003A64FB63F96B3A6C41E80023BB63BB6B81
:1049A000002BE5D17B681B6814333B623B6A53E8FC
:1049B000003FFB61FB6923F00103BB647B681B685C
:1049C0001433BA6CFA62BB62B96AFA6A41E800232E
:1049D0007B627B6A002BE5D17B681B6B012B19D1B5
:1049E0007B681B680C33FB60FB6853E8003FBB60CF
:1049F000BB6823F010037B647B681B680C337A6C04
:104A0000BA617B617969BA6941E800233B613B691E
:104A1000002BE5D17B68202283F842207B680022AE
:104A20001A6300BF5437BD4680BC704780B584B060
:104A300000AF78607B685B6AFB60FB680022DA8508
:104A4000FB680022DA84F868FFF741FF00BF1037E7
:104A5000BD4680BD80B485B000AF78607B6893F8B8
:104A60004130DBB2212B3ED17B689B68B3F5805F80
:104A700014D17B681B69002B10D17B681B6AFB601B
:104A8000FB681B881A467B681B68C2F308025A60E1
:104A90007B681B6A9A1C7B681A6208E07B681B6A49
:104AA000591C7A6811621A787B681B685A607B68A7
:104AB000DB8C9BB2013B9BB27A681946D184002BF8
:104AC0000FD17B681B68DA687B681B6822F0800264
:104AD000DA607B681B68DA687B681B6842F040021A
:104AE000DA60002300E0022318461437BD4680BC7C
:104AF000704780B582B000AF78607B681B68DA6869
:104B00007B681B6822F04002DA607B68202283F811
:104B100041207868FFF7D2FE002318460837BD46CB
:104B200080BD80B58CB000AF78607B6893F8423070
:104B3000DBB2222B40F0AE807B689B68B3F5805FD0
:104B400017D17B681B69002B13D10023FB627B68A4
:104B50009B6ABB627B681B685B689BB2C3F30803FC
:104B60009AB2BB6A1A807B689B6A9A1C7B689A62BD
:104B700026E07B689B6AFB620023BB627B689B68C4
:104B8000B3F5805F07D07B689B68002B0AD17B68F8
:104B90001B69002B06D17B681B685B68DAB2FB6A75
:104BA0001A7008E07B681B685B68DBB203F07F0368
:104BB000DAB2FB6A1A707B689B6A5A1C7B689A623D
:104BC0007B68DB8D9BB2013B9BB27A681946D1852D
:104BD000002B5DD17B681B68DA687B681B6822F05C
:104BE0002002DA607B681B68DA687B681B6822F445
:104BF0008072DA607B681B685A697B681B6822F0E8
:104C000001025A617B68202283F842207B680022DF
:104C10005A637B681B6B012B35D17B6800221A63BA
:104C20007B681B680C337B617B6953E8003F3B6109
:104C30003B6923F010037B627B681B680C337A6A44
:104C40003A62FB61F9693A6A41E80023BB61BB69DA
:104C5000002BE5D17B681B681B6803F01003102B49
:104C60000AD10023FB607B681B681B68FB607B68C4
:104C70001B685B68FB60FB687B689B8D19467868E6
:104C8000FFF72EFE02E07868FCF78AFB002302E0C3
:104C9000002300E0022318463037BD4680BD0000E7
:104CA00080B584B000AF78607B681B681B6923F413
:104CB00040517B68DA687B681B680A431A617B682D
:104CC0009A687B681B691A437B685B691343BB6006
:104CD0007B681B68DB6823F4B05323F00C037A680D
:104CE0001268B9680B43D3607B681B685B6923F467
:104CF00040717B689A697B681B680A435A617B68CC
:104D00001B682C4A934203D1FEF74CFDF86002E089
:104D1000FEF734FDF860FA6813469B0013449A00CE
:104D20001A447B685B689B00B2FBF3F3224AA2FB48
:104D300003235B091901FA6813469B0013449A0088
:104D40001A447B685B689B00B2FBF3F21A4BA3FB2F
:104D500002035B09642000FB03F3D31A1B01323307
:104D6000154AA2FB03235B0903F0F0031944FA6818
:104D700013469B0013449A001A447B685B689B00AF
:104D8000B2FBF3F20C4BA3FB02035B09642000FBB4
:104D900003F3D31A1B013233074AA2FB03235B0937
:104DA00003F00F027B681B680A449A6000BF10374B
:104DB000BD4680BD003801401F85EB5180B584B0F1
:104DC00000AFF860B96011461A460B46FB711346F6
:104DD000BB71FB683A7E9A70FB680822DA70FB6848
:104DE000FA791A70FB68BA795A70FB68BA689A60E7
:104DF000FB6804221A712820FDF7DAF83021F868E0
:104E000000F047F80520FDF7D3F83021F86800F0EE
:104E100040F80120FDF7CCF83021F86800F039F8AF
:104E20000A20FDF7C5F82021F86800F032F80A20C2
:104E3000FDF7BEF82821F86800F02BF80120FDF7F7
:104E4000B7F80821F86800F024F80120FDF7B0F861
:104E50000121F86800F01DF80120FDF7A9F80120F4
:104E6000FDF7A6F80621F86800F013F80120FDF719
:104E70009FF8FB681B7943F00803DBB21946F8681A
:104E800000F007F80120FDF793F800BF1037BD468A
:104E900080BD80B586B002AF78600B46FB70FB78B2
:104EA00023F00F03FB73FB781B01BB73FB7B43F009
:104EB0000C03DBB23B72FB7B43F00803DBB27B727B
:104EC000BB7B43F00C03DBB2BB72BB7B43F008033C
:104ED000DBB2FB727B6898687B689B7899B207F1BC
:104EE0000802642300930423FDF726FD00BF10375A
:104EF000BD4680BD80B586B002AF78600B46FB70C2
:104F0000FB7823F00F03FB73FB781B01BB73FB7B68
:104F100043F00D03DBB23B72FB7B43F00903DBB2D2
:104F20007B72BB7B43F00D03DBB2BB72BB7B43F0F8
:104F30000903DBB2FB727B6898687B689B7899B247
:104F400007F10802642300930423FDF7F5FC00BF7A
:104F50001037BD4680BD000080B584B000AF7860DA
:104F60000B46FB701346BB700F4BFB607B685B7896
:104F7000BA789A4203D97B685B78013BBB70BB78F7
:104F800010333B4413F8042CFB781344DBB25BB2C0
:104F900063F07F035BB2DBB219467868FFF779FFF5
:104FA00000BF1037BD4680BD0040145480B582B0AC
:104FB00000AF7860396007E03B685A1C3A601B78A4
:104FC00019467868FFF796FF3B681B78002BF3D1F2
:104FD00000BF00BF0837BD4680BD002B2DE9F0475C
:104FE0001F46BBBF03F100431F4600232D2388B09B
:104FF0001446129A109D1370149BDDF84CA023F0F8
:105000002008B8F1460F05D0B8F1450F00D10135A1
:10501000022300E0032307AA049206AACDE902A214
:10502000CDE9003522463B4601F0BAF8B8F1470F0A
:10503000064602D1119BDB0722D5B8F1460F06EBDD
:10504000050910D13378302B0AD1002200232046E5
:105050003946FBF7A9FC18B9C5F10105CAF800509B
:10506000DAF8003099440022002320463946FBF745
:105070009BFC08B1CDF81C903022079B4B4507D311
:105080003046079B159A9B1B136008B0BDE8F0875C
:10509000591C07911A70F0E70346F7B5002903F889
:1050A000022BB6BF2D222B224942092942702ADD4C
:1050B0000DF1070217460A2691FBF6F5944606FB0A
:1050C000151430340CF8014C0C46632C294602F1BF
:1050D000FF32F1DC3031ACF1020402F8011C22464F
:1050E000411CBA420AD30DF10902A2EB0C02BC42E8
:1050F00088BF00221344181A03B0F0BD12F8015BF8
:1051000001F8015FEDE7302330318370C170031D7A
:10511000F1E700002DE9F04F91B00C46DDF8688012
:1051200016461F46054600F027FF036818460993F8
:10513000FBF70EF800230E93D8F800300A900733DF
:1051400023F0070303F1080294F81890D4F800B094
:10515000C8F80020D3E900A852464346C4E9122308
:1051600028F000430B934FF0FF3250469C4B0B99B5
:10517000FBF74CFC70BB4FF0FF325046984B0B993D
:10518000FBF726FC30BB0022002350464146FBF7CC
:1051900015FC10B12D2384F84330924A924BB9F19B
:1051A000470F94BF9046984603234FF0000A2361AF
:1051B0002BF00403236033462146284600970FAAAC
:1051C00000F0D6F9013040F090804FF0FF3011B080
:1051D000BDE8F08F5246434650464146FBF716FC69
:1051E00048B1B8F1000FB8BF2D23804AB8BF84F88A
:1051F00043307F4BD3E7636809F0DF015A1C42D18B
:1052000006236360002206920EAACDE904920DAA3D
:105210004BF4806303920DF13302CDE90132236038
:10522000636852460093284643460B91FFF7D5FE2C
:105230000B99804647290D9908D1C81C02DB636889
:10524000994240DDA9F102095FFA89F9B9F1650FC8
:105250001FD84A46013904F150000D91FFF71CFF99
:105260000E9A82461318012A236102DC2268D207B3
:1052700001D5013323619DF83330002B9BD02D23C2
:1052800084F8433097E74729BCD1002BBAD10123DA
:10529000B7E7B9F1660F18D1002963680BDD21610A
:1052A00013B92268D00702D501330B4423614FF0B4
:1052B000000AA165DFE713B92268D20701D50233DE
:1052C000F4E70123F2E74FF067090E9B994205DBF3
:1052D00023682161D807EAD54B1CE7E70029CCBF3A
:1052E0000122C1F102021344E0E723685A0507D402
:1052F0002369424631462846B84701302BD164E73E
:10530000B9F1650F40F2DD80D4E9120100220023DB
:10531000FBF74AFB002833D0012331462846354AA3
:10532000B84701303FF451AFDDE90D239A4202DB6B
:105330002368D8070FD5DDE9092331462846B84749
:1053400001303FF442AF4FF0000804F11A090E9B00
:10535000013B434509DC23689B0700F10481E068B9
:105360000F9B9842B8BF184631E701234A463146A1
:105370002846B84701303FF428AF08F10108E6E7B6
:105380000D9B002B38DC012331462846194AB847CB
:1053900001303FF41AAFDDE90D32134302D1236827
:1053A000D907D8D5DDE9092331462846B847013069
:1053B0003FF40BAF4FF0000904F11A0A0D9B5B425A
:1053C0004B4501DC0E9B94E70123524631462846AB
:1053D000B84701303FF4F9AE09F10109EEE700BF2B
:1053E000FFFFEF7F0A9800080E9800081298000847
:1053F000169800081A9800080E9AA36D9A42A8BF42
:105400001A46002A914637DC4FF0000B29EAE97969
:1054100004F11A02D4F858A0AAEB09035B4533DC67
:10542000DDE90D239A423BDB2368DA0738D4DDE956
:105430000D32A2EB0309A2EB0A029145A8BF9146E7
:10544000B9F1000F34DC4FF0000829EAE97904F1E2
:105450001A0ADDE90D239B1AA3EB090343457FF7E5
:105460007AAF0123524631462846B84701303FF40F
:10547000ACAE08F10108ECE7134631464246284637
:10548000B8470130C0D1A0E60123314628460B922F
:10549000B84701303FF499AE0B9A0BF1010BB9E715
:1054A0003146DDE909232846B8470130BFD18CE6F3
:1054B0004B463146284608EB0A02B8470130C2D1B4
:1054C00083E60E9A012A01DCDB0739D50123424627
:1054D00031462846B84701303FF477AEDDE909236D
:1054E00031462846B84701303FF46FAED4E9120187
:1054F00000220023DDF83890FBF756FAD8B909F1FD
:10550000FF3308F1010231462846B84701300ED179
:105510005BE601234A4631462846B84701303FF44E
:1055200054AE08F101080E9B013B4345F1DC5346A4
:1055300004F15002DEE64FF0000804F11A09F2E728
:1055400001234246DFE701234A4631462846B84751
:1055500001303FF43AAE08F10108E3680F995B1A95
:105560004345F0DCFBE64FF0000804F11909F4E7CD
:105570002DE9F047164699468A680B69074693421B
:10558000B8BF1346336091F843200C46DDF8208005
:105590000AB1013333602368990642BF336802338E
:1055A0003360256815F0060506D104F1190AE36891
:1055B00032689B1AAB422BDC94F84320131E2268FE
:1055C00018BF0123920630D44946384604F14302FD
:1055D000C047013023D02368226903F00603042B5F
:1055E00014BF002533684FF0000608BFE56804F1DA
:1055F0001A0408BFED1A54F8123C08BF25EAE575F5
:105600009342C4BF9B1AED18B5421AD1002008E09E
:105610000123524649463846C047013003D14FF076
:10562000FF30BDE8F0870135C1E73020E11881F88F
:1056300043005A1C94F845102244023382F8431068
:10564000C2E70123224649463846C0470130E6D02A
:105650000136D9E72DE9FF470F7E9146782F804626
:105660000C469A460C9D01F1430207D8622F0AD8D6
:10567000002F00F0D580582F00F0C18004F14205C2
:1056800084F842703AE0A7F16303152BF6D801A124
:1056900051F823F0ED560008015700087D56000828
:1056A0007D5600087D5600087D5600080157000809
:1056B0007D5600087D5600087D5600087D5600087E
:1056C000075800082D570008C15700087D560008EC
:1056D0007D560008295800087D5600082D570008FF
:1056E0007D5600087D560008C95700082B681A1D12
:1056F0001B682A6004F1420584F842300123A0E0CF
:1057000020682B68070603F10401296001D51E6893
:1057100003E04606FBD5B3F90060002E03DA2D2323
:10572000764284F843300A23594812E02B682068F7
:10573000191D2960050601D51E6802E04106FBD54A
:105740001E886F2F0CBF08230A235148002184F8BC
:1057500043106568002DA8BF2168A560A4BF21F093
:10576000040121600EB9002D4BD01546B6FBF3F1B4
:1057700003FB1167C75D05F8017D3746BB420E4646
:10578000F4D9082B0BD12368DE0708D5236961689B
:105790009942DEBF302305F8013C05F1FF35521B6D
:1057A00022614B4621464046CDF800A003AAFFF7F0
:1057B000DFFE01304AD14FF0FF3004B0BDE8F08782
:1057C000236843F0200323607827324884F845702B
:1057D000236829681F0651F8046B02D45F0648BF8E
:1057E000B6B2DF0748BF43F02003296048BF2360FB
:1057F0001EB9236823F0200323601023A6E7244862
:10580000E4E71546BDE72B682668181D6169286026
:1058100035061B6801D5196002E07006FBD51980BA
:10582000002315462361BCE72B6800211A1D2A605E
:105830001D686268284600F016FC08B1401B6060D5
:1058400063682361002384F84330AAE72A46494667
:1058500040462369D0470130ADD023689B0713D45D
:10586000E068039B9842B8BF1846A6E7012332467A
:1058700049464046D04701309DD00135E368039941
:105880005B1AAB42F2DCEBE7002504F11906F5E701
:105890001C9800082D9800082DE9F04F87B003935D
:1058A0008B6817465A1EB2F5AE7F85BF6FF4AE7592
:1058B0005B190023029388BF40F25D138B464FF0C3
:1058C00000058CBF8B6002930B68804643F4F06345
:1058D0004BF81C3B0C465E46AA46A946CDE904554A
:1058E0000195A26852B13B681B784E2B64D8402BBF
:1058F0003CD8A3F12B01C8B20E283AD9B9F1000F58
:1059000003D0236823F4807323600AF1FF3ABAF1CD
:10591000010F00F213815E4500F205810125284642
:1059200007B0BDE8F08FA3F161020D2AE6D801A10E
:1059300051F822F0735A0008FD580008FD5800087D
:10594000FD580008D35A0008AB5A0008FD5800085B
:10595000FD580008815A0008FD580008FD5800084D
:10596000FD580008FD580008395A0008A3F141020B
:10597000DBE70E29C2D801A050F821F02B5A00080D
:10598000FD5800082B5A0008BF5A0008FD580008AF
:10599000D9590008155A0008155A0008155A000868
:1059A000155A0008155A0008155A0008155A00081B
:1059B000155A0008155A00086E2B09D8602BB2D86A
:1059C000542B77D0592B99D1072D97D1082529E051
:1059D000742B6FD0792BF6E72168C8051AD5029B86
:1059E00021F08001216009F101091BB1013B013265
:1059F0000293A260A368013BA36023690133236182
:105A00007B68013B002B7B6040F384803B68013363
:105A10003B6066E71AEB050F7FF470AF226822F453
:105A2000C072226006F8013BE4E7226810067FF5A9
:105A300065AF22F08002F4E7BAF1000F0ED1B9F1A0
:105A4000000F0ED1226802F4E061B1F5E06F08D1D9
:105A500022F4F0624FF0010A2260E3E7BAF1020F8C
:105A600055D0012D02D0042D7FF448AF0135EDB2A1
:105A7000D8E7BAF1010F7FF441AF4FF0020AD1E746
:105A80007DB9B9F1000F7FF43CAF226802F4E06108
:105A9000B1F5E06F7FF439AF22F4F06201252260A6
:105AA000C0E7032DE2D0052DDEE7022D7FF426AFFF
:105AB0000325B7E7062D7FF421AF0725B2E722685B
:105AC00091057FF51BAF22F420722260CDF804907F
:105AD000A8E7226802F4A061B1F5806F06D05005F6
